:03000000020E608D
:0C0E6000787FE4F6D8FD758119020800C7
:100E150050617373776F72642D00436F72726563EF
:100E25007400496E636F72726563740036393639C2
:010E350000BC
:060DC700D2B17F017E00A5
:100DCD00E4FDFCC3ED9FEE6480F8EC648098501454
:100DDD00E4FBFA0BBB00010AEBF44A70F60DBD0003
:040DED00010C80DF96
:010DF10022DF
:0C0E3600120E6C7FC87E00120DCD7F06EE
:0A0E42008FA0C2B0120DC7C2B1228A
:0A0E6C008FA0D2B0120DC7C2B12250
:100DF2008B178A188919AB17AA18A919120BE7FFC2
:100E02006010120E6C74012519F519E43518F518E5
:030E120080E42257
:100E4C007F01120E427F38120E427F0E120E427F2D
:040E5C0080020E42C0
:1008000078087C007D007BFF7A0E79317E007F05C1
:10081000120BC1E4F512F513F51475150075160DDC
:10082000120E4C7BFF7A0E7915120DF2E4F511C30E
:10083000E5139404E512648094804003020AA075D5
:1008400090FEE590B4EE21AB14AA15A9168513828B
:100850008512837437120C007F37120E360513E5AC
:1008600013700205120208D5E590B4DE20AB14AA7D
:1008700015A9168513828512837438120C007F38EF
:10088000120E360513E513704C05128048E590B43E
:10089000BE20AB14AA15A91685138285128374395C
:1008A000120C007F39120E360513E513702705125E
:1008B0008023E590B47E1EAB14AA15A91685138279
:1008C000851283742F120C007F2F120E360513E54C
:1008D00013700205127590FDE590B4ED21AB14AADA
:1008E00015A9168513828512837434120C007F3487
:1008F000120E360513E5137028051202096BE590F8
:10090000B4DD20AB14AA15A9168513828512837451
:1009100035120C007F35120E360513E513700205F3
:10092000128048E590B4BD20AB14AA15A916851312
:10093000828512837436120C007F36120E36051330
:10094000E513702705128023E590B47D1EAB14AA31
:1009500015A916851382851283742A120C007F2A2A
:10096000120E360513E513700205127590FBE59023
:10097000B4EB21AB14AA15A91685138285128374D2
:1009800031120C007F31120E360513E51370280565
:1009900012020A01E590B4DB20AB14AA15A9168552
:1009A00013828512837432120C007F32120E3605C8
:1009B00013E513700205128048E590B4BB20AB1418
:1009C000AA15A9168513828512837433120C007F31
:1009D00033120E360513E513702705128023E590B8
:1009E000B47B1EAB14AA15A91685138285128374D5
:1009F0002D120C007F2D120E360513E51370020523
:100A0000127590F7E590B4E721AB14AA15A91685E5
:100A100013828512837443120C007F43120E360535
:100A200013E5137028051202082FE590B4D721AB07
:100A300014AA15A9168513828512837430120C002E
:100A40007F30120E360513E5137002051202082FCF
:100A5000E590B4B721AB14AA15A9168513828512A7
:100A600083743D120C007F3D120E360513E51370A2
:100A700002051202082FE5906477600302082FAB8D
:100A800014AA15A916851382851283742B120C00E3
:100A90007F2B120E360513E5137002051202082F84
:100AA000E51364044512600302082F78087C00FDFA
:100AB000FB7A00790D120DAAEF701B7FC0120E4257
:100AC0007BFF7A0E791F120DF2D2B2C2B37F647E21
:100AD00000120DCD80CA7FC0120E427BFF7A0E79C4
:100AE00027120DF2C2B2C2B37F647E00120DCD8018
:010AF000AF56
:100AF100E709F608DFFA8046E709F208DFFA803EE7
:100B010088828C83E709F0A3DFFA8032E309F608D3
:100B1100DFFA8078E309F208DFFA807088828C833B
:100B2100E309F0A3DFFA806489828A83E0A3F608EF
:100B3100DFFA805889828A83E0A3F208DFFA804CC9
:100B410080D280FA80C680D4806980F280338010A0
:100B510080A680EA809A80A880DA80E280CA803309
:100B610089828A83ECFAE493A3C8C582C8CCC58381
:100B7100CCF0A3C8C582C8CCC583CCDFE9DEE78051
:100B81000D89828A83E493A3F608DFF9ECFAA9F0D0
:100B9100EDFB2289828A83ECFAE0A3C8C582C8CC26
:100BA100C583CCF0A3C8C582C8CCC583CCDFEADE3F
:100BB100E880DB89828A83E493A3F208DFF980CCA1
:100BC10088F0EF60010E4E60C388F0ED2402B4049A
:100BD1000050B9F582EB2402B4040050AF23234541
:060BE1008223900B41731A
:100BE700BB010689828A83E0225002E722BBFE020C
:090BF700E32289828A83E493223F
:100C0000F8BB010DE58229F582E5833AF583E8F02A
:100C1000225006E92582C8F622BBFE05E92582C8D6
:020C2000F222BE
:100C2200E3F5F009E208B5F06D606B80F3E3F5F0EF
:100C320009E608B5F060605E80F387F009E608B562
:100C4200F054605280F487F009E208B5F04860463B
:100C520080F488828C8387F009E0A3B5F03860368F
:100C620080F488828C8387F009E493A3B5F027602F
:100C72002580F388828C83E3F5F009E0A3B5F016B2
:100C8200601480F388828C83E3F5F009E493A3B5C2
:100C9200F004600280F2020D4D808580E7808E8034
:100CA200D2803C8015806C807E809B80B5808B805A
:100CB200A1804F8070803A020D6389828A83ECFAA8
:100CC200E493F5F0A3C8C582C8CCC583CCE493A352
:100CD200C8C582C8CCC583CCB5F070606E80E1898E
:100CE200828A83E493F5F0A3E208B5F05E605C804B
:100CF200F289828A83E0F5F0A3E608B5F04D604BF5
:100D020080F389828A83E0F5F0A3E208B5F03C60C3
:100D12003A80F389828A83E493F5F0A3E608B5F07A
:100D22002A602880F2805D89828A83ECFAE493F556
:100D3200F0A3C8C582C8CCC583CCE0A3C8C582C80D
:100D4200CCC583CCB5F004600280E27F00F845F0A8
:100D5200600EE863F0806480D395F01F40027F014B
:100D62002289828A83ECFAE0F5F0A3C8C582C8CC56
:100D7200C583CCE0A3C8C582C8CCC583CCB5F0CBB3
:100D820060C980E389828A83ECFAE0F5F0A3C8C5E2
:100D920082C8CCC583CCE493A3C8C582C8CCC58322
:100DA200CCB5F0A760A580E288F0ED2402B404007F
:100DB2005099F582EB2402B40400508F232345821C
:050DC20023900C9B735F
:00000001FF
